{
  "contractName": "LotteryGame",
  "abi": [
    {
      "constant": true,
      "inputs": [],
      "name": "prizePercentage",
      "outputs": [
        {
          "name": "",
          "type": "uint16"
        }
      ],
      "payable": false,
      "stateMutability": "view",
      "type": "function"
    },
    {
      "constant": true,
      "inputs": [],
      "name": "lastWinnerPrize",
      "outputs": [
        {
          "name": "",
          "type": "uint256"
        }
      ],
      "payable": false,
      "stateMutability": "view",
      "type": "function"
    },
    {
      "constant": true,
      "inputs": [],
      "name": "lastWinnerAddress",
      "outputs": [
        {
          "name": "",
          "type": "address"
        }
      ],
      "payable": false,
      "stateMutability": "view",
      "type": "function"
    },
    {
      "constant": true,
      "inputs": [],
      "name": "totalPrizes",
      "outputs": [
        {
          "name": "",
          "type": "uint64"
        }
      ],
      "payable": false,
      "stateMutability": "view",
      "type": "function"
    },
    {
      "constant": false,
      "inputs": [
        {
          "name": "newOwner",
          "type": "address"
        }
      ],
      "name": "transferOwnershipTo",
      "outputs": [],
      "payable": false,
      "stateMutability": "nonpayable",
      "type": "function"
    },
    {
      "constant": true,
      "inputs": [],
      "name": "totalPrizesValue",
      "outputs": [
        {
          "name": "",
          "type": "uint256"
        }
      ],
      "payable": false,
      "stateMutability": "view",
      "type": "function"
    },
    {
      "constant": true,
      "inputs": [],
      "name": "getOwner",
      "outputs": [
        {
          "name": "",
          "type": "address"
        }
      ],
      "payable": false,
      "stateMutability": "view",
      "type": "function"
    },
    {
      "constant": true,
      "inputs": [],
      "name": "isOwner",
      "outputs": [
        {
          "name": "",
          "type": "bool"
        }
      ],
      "payable": false,
      "stateMutability": "view",
      "type": "function"
    },
    {
      "constant": true,
      "inputs": [],
      "name": "maxTickets",
      "outputs": [
        {
          "name": "",
          "type": "uint128"
        }
      ],
      "payable": false,
      "stateMutability": "view",
      "type": "function"
    },
    {
      "constant": true,
      "inputs": [],
      "name": "ticketValue",
      "outputs": [
        {
          "name": "",
          "type": "uint256"
        }
      ],
      "payable": false,
      "stateMutability": "view",
      "type": "function"
    },
    {
      "constant": true,
      "inputs": [],
      "name": "lotteryDraw",
      "outputs": [
        {
          "name": "",
          "type": "uint64"
        }
      ],
      "payable": false,
      "stateMutability": "view",
      "type": "function"
    },
    {
      "constant": true,
      "inputs": [],
      "name": "lastWinner",
      "outputs": [
        {
          "name": "",
          "type": "uint256"
        }
      ],
      "payable": false,
      "stateMutability": "view",
      "type": "function"
    },
    {
      "inputs": [],
      "payable": false,
      "stateMutability": "nonpayable",
      "type": "constructor"
    },
    {
      "constant": false,
      "inputs": [
        {
          "name": "_maxTickets",
          "type": "uint128"
        },
        {
          "name": "_ticketValue",
          "type": "uint256"
        },
        {
          "name": "_prizePercentage",
          "type": "uint16"
        }
      ],
      "name": "newLotteryGame",
      "outputs": [],
      "payable": false,
      "stateMutability": "nonpayable",
      "type": "function"
    },
    {
      "constant": false,
      "inputs": [],
      "name": "buyTicket",
      "outputs": [
        {
          "name": "",
          "type": "uint256"
        }
      ],
      "payable": true,
      "stateMutability": "payable",
      "type": "function"
    },
    {
      "constant": false,
      "inputs": [],
      "name": "runTheDraw",
      "outputs": [
        {
          "name": "",
          "type": "uint256"
        }
      ],
      "payable": false,
      "stateMutability": "nonpayable",
      "type": "function"
    },
    {
      "constant": false,
      "inputs": [
        {
          "name": "_maxTickets",
          "type": "uint128"
        }
      ],
      "name": "setMaxTickets",
      "outputs": [],
      "payable": false,
      "stateMutability": "nonpayable",
      "type": "function"
    },
    {
      "constant": false,
      "inputs": [
        {
          "name": "_ticketValue",
          "type": "uint256"
        }
      ],
      "name": "setTicketPrice",
      "outputs": [],
      "payable": false,
      "stateMutability": "nonpayable",
      "type": "function"
    },
    {
      "constant": false,
      "inputs": [
        {
          "name": "_prizePercentage",
          "type": "uint16"
        }
      ],
      "name": "setPrizePercentage",
      "outputs": [],
      "payable": false,
      "stateMutability": "nonpayable",
      "type": "function"
    },
    {
      "constant": true,
      "inputs": [],
      "name": "getTicketPrice",
      "outputs": [
        {
          "name": "",
          "type": "uint256"
        }
      ],
      "payable": false,
      "stateMutability": "view",
      "type": "function"
    },
    {
      "constant": true,
      "inputs": [],
      "name": "getLotteryPrize",
      "outputs": [
        {
          "name": "",
          "type": "uint256"
        }
      ],
      "payable": false,
      "stateMutability": "view",
      "type": "function"
    }
  ],
  "bytecode": "0x608060405234801561001057600080fd5b50336000806101000a81548173ffffffffffffffffffffffffffffffffffffffff021916908373ffffffffffffffffffffffffffffffffffffffff1602179055506001600960086101000a81548160ff0219169083600181111561007057fe5b02179055506000600460006101000a81548167ffffffffffffffff021916908367ffffffffffffffff160217905550605f600460086101000a81548161ffff021916908361ffff1602179055506119d9806100cc6000396000f300608060405260043610610112576000357c0100000000000000000000000000000000000000000000000000000000900463ffffffff16806303d15fae1461011757806311dc73351461014257806312a8dd211461017557806315981650146101a05780631a747b33146101cd5780631ec411631461020c57806325e6c3041461026357806352effe11146102a25780636c1d5580146102e5578063717df3c31461031057806387bb7ae014610367578063893d20e8146103925780638f32d59b146103e957806395af6606146104185780639b89470314610449578063a638f49814610498578063d780c477146104c3578063e4459e87146104ee578063edca914c1461052d578063fe1881841461054b575b600080fd5b34801561012357600080fd5b5061012c610576565b6040518082815260200191505060405180910390f35b34801561014e57600080fd5b50610157610a8b565b604051808261ffff1661ffff16815260200191505060405180910390f35b34801561018157600080fd5b5061018a610a9f565b6040518082815260200191505060405180910390f35b3480156101ac57600080fd5b506101cb60048036038101908080359060200190929190505050610aa5565b005b3480156101d957600080fd5b5061020a60048036038101908080356fffffffffffffffffffffffffffffffff169060200190929190505050610ba3565b005b34801561021857600080fd5b50610221610ce5565b604051808273ffffffffffffffffffffffffffffffffffffffff1673ffffffffffffffffffffffffffffffffffffffff16815260200191505060405180910390f35b34801561026f57600080fd5b50610278610d0b565b604051808267ffffffffffffffff1667ffffffffffffffff16815260200191505060405180910390f35b3480156102ae57600080fd5b506102e3600480360381019080803573ffffffffffffffffffffffffffffffffffffffff169060200190929190505050610d25565b005b3480156102f157600080fd5b506102fa610de4565b6040518082815260200191505060405180910390f35b34801561031c57600080fd5b5061036560048036038101908080356fffffffffffffffffffffffffffffffff16906020019092919080359060200190929190803561ffff169060200190929190505050610dea565b005b34801561037357600080fd5b5061037c611293565b6040518082815260200191505060405180910390f35b34801561039e57600080fd5b506103a761129d565b604051808273ffffffffffffffffffffffffffffffffffffffff1673ffffffffffffffffffffffffffffffffffffffff16815260200191505060405180910390f35b3480156103f557600080fd5b506103fe6112c6565b604051808215151515815260200191505060405180910390f35b34801561042457600080fd5b50610447600480360381019080803561ffff16906020019092919050505061131d565b005b34801561045557600080fd5b5061045e6114b2565b60405180826fffffffffffffffffffffffffffffffff166fffffffffffffffffffffffffffffffff16815260200191505060405180910390f35b3480156104a457600080fd5b506104ad6114d4565b6040518082815260200191505060405180910390f35b3480156104cf57600080fd5b506104d86114da565b6040518082815260200191505060405180910390f35b3480156104fa57600080fd5b5061050361151b565b604051808267ffffffffffffffff1667ffffffffffffffff16815260200191505060405180910390f35b610535611535565b6040518082815260200191505060405180910390f35b34801561055757600080fd5b506105606117c7565b6040518082815260200191505060405180910390f35b60008060008060008060006105896112c6565b15156105fd576040517f08c379a00000000000000000000000000000000000000000000000000000000081526004018080602001828103825260158152602001807f596f75206d75737420626520746865206f776e6572000000000000000000000081525060200191505060405180910390fd5b6000600181111561060a57fe5b600960089054906101000a900460ff16600181111561062557fe5b14151561069a576040517f08c379a00000000000000000000000000000000000000000000000000000000081526004018080602001828103825260168152602001807f4c6f7474657279206973206e6f742073656c6c696e670000000000000000000081525060200191505060405180910390fd5b600260018054905010151515610718576040517f08c379a00000000000000000000000000000000000000000000000000000000081526004018080602001828103825260128152602001807f4e6f7420656e6f75676820706c6179657273000000000000000000000000000081525060200191505060405180910390fd5b60003073ffffffffffffffffffffffffffffffffffffffff16311115156107a7576040517f08c379a000000000000000000000000000000000000000000000000000000000815260040180806020018281038252600f8152602001807f42616c616e6365206973207a65726f000000000000000000000000000000000081525060200191505060405180910390fd5b6000600460089054906101000a900461ffff1661ffff16111515610833576040517f08c379a00000000000000000000000000000000000000000000000000000000081526004018080602001828103825260128152602001807f50657263656e74616765206973207a65726f000000000000000000000000000081525060200191505060405180910390fd5b6001600960086101000a81548160ff0219169083600181111561085257fe5b021790555061085f6117cd565b955060018681548110151561087057fe5b9060005260206000200160009054906101000a900473ffffffffffffffffffffffffffffffffffffffff1694503073ffffffffffffffffffffffffffffffffffffffff163193506064600460089054906101000a900461ffff1661ffff1685028115156108d957fe5b04925082840391506108e961129d565b905085600460009054906101000a900467ffffffffffffffff1667ffffffffffffffff16600260009054906101000a90046fffffffffffffffffffffffffffffffff16026fffffffffffffffffffffffffffffffff160160058190555084600660006101000a81548173ffffffffffffffffffffffffffffffffffffffff021916908373ffffffffffffffffffffffffffffffffffffffff16021790555082600781905550826008600082825401925050819055506009600081819054906101000a900467ffffffffffffffff168092919060010191906101000a81548167ffffffffffffffff021916908367ffffffffffffffff160217905550508473ffffffffffffffffffffffffffffffffffffffff166108fc849081150290604051600060405180830381858888f19350505050158015610a2b573d6000803e3d6000fd5b506000821115610a7d578073ffffffffffffffffffffffffffffffffffffffff166108fc839081150290604051600060405180830381858888f19350505050158015610a7b573d6000803e3d6000fd5b505b600554965050505050505090565b600460089054906101000a900461ffff1681565b60075481565b610aad6112c6565b1515610b21576040517f08c379a00000000000000000000000000000000000000000000000000000000081526004018080602001828103825260158152602001807f596f75206d75737420626520746865206f776e6572000000000000000000000081525060200191505060405180910390fd5b600081111515610b99576040517f08c379a000000000000000000000000000000000000000000000000000000000815260040180806020018281038252601b8152602001807f5469636b65747320707269636520616e206e6f206265207a65726f000000000081525060200191505060405180910390fd5b8060038190555050565b610bab6112c6565b1515610c1f576040517f08c379a00000000000000000000000000000000000000000000000000000000081526004018080602001828103825260158152602001807f596f75206d75737420626520746865206f776e6572000000000000000000000081525060200191505060405180910390fd5b6000816fffffffffffffffffffffffffffffffff16111515610ca9576040517f08c379a000000000000000000000000000000000000000000000000000000000815260040180806020018281038252601d8152602001807f5469636b657473206e756d6265722063616e206e6f206265207a65726f00000081525060200191505060405180910390fd5b80600260006101000a8154816fffffffffffffffffffffffffffffffff02191690836fffffffffffffffffffffffffffffffff16021790555050565b600660009054906101000a900473ffffffffffffffffffffffffffffffffffffffff1681565b600960009054906101000a900467ffffffffffffffff1681565b610d2d6112c6565b1515610da1576040517f08c379a00000000000000000000000000000000000000000000000000000000081526004018080602001828103825260158152602001807f596f75206d75737420626520746865206f776e6572000000000000000000000081525060200191505060405180910390fd5b806000806101000a81548173ffffffffffffffffffffffffffffffffffffffff021916908373ffffffffffffffffffffffffffffffffffffffff16021790555050565b60085481565b610df26112c6565b1515610e66576040517f08c379a00000000000000000000000000000000000000000000000000000000081526004018080602001828103825260158152602001807f596f75206d75737420626520746865206f776e6572000000000000000000000081525060200191505060405180910390fd5b600180811115610e7257fe5b600960089054906101000a900460ff166001811115610e8d57fe5b141515610f02576040517f08c379a00000000000000000000000000000000000000000000000000000000081526004018080602001828103825260158152602001807f4c6f7474657279207374696c6c2073656c6c696e67000000000000000000000081525060200191505060405180910390fd5b60003073ffffffffffffffffffffffffffffffffffffffff1631141515610f91576040517f08c379a00000000000000000000000000000000000000000000000000000000081526004018080602001828103825260158152602001807f42616c616e6365206973206e6f74207a65726f6564000000000000000000000081525060200191505060405180910390fd5b6000836fffffffffffffffffffffffffffffffff1611151561101b576040517f08c379a00000000000000000000000000000000000000000000000000000000081526004018080602001828103825260198152602001807f6d61785469636b6574732063616e206e6f206265207a65726f0000000000000081525060200191505060405180910390fd5b600082111515611093576040517f08c379a000000000000000000000000000000000000000000000000000000000815260040180806020018281038252601a8152602001807f7469636b657456616c75652063616e206e6f206265207a65726f00000000000081525060200191505060405180910390fd5b60008161ffff1611151561110f576040517f08c379a000000000000000000000000000000000000000000000000000000000815260040180806020018281038252601e8152602001807f7072697a6550657263656e746167652078616e206e6f206265207a65726f000081525060200191505060405180910390fd5b60648161ffff16111515156111b2576040517f08c379a00000000000000000000000000000000000000000000000000000000081526004018080602001828103825260278152602001807f7072697a6550657263656e746167652063616e206e6f206265206d6f7265207481526020017f68616e203130300000000000000000000000000000000000000000000000000081525060400191505060405180910390fd5b6111bb83610ba3565b6111c482610aa5565b6111cd8161131d565b6000600180549050111561122357600060405190808252806020026020018201604052801561120b5781602001602082028038833980820191505090505b50600190805190602001906112219291906118e0565b505b6004600081819054906101000a900467ffffffffffffffff168092919060010191906101000a81548167ffffffffffffffff021916908367ffffffffffffffff160217905550506000600960086101000a81548160ff0219169083600181111561128957fe5b0217905550505050565b6000600354905090565b60008060009054906101000a900473ffffffffffffffffffffffffffffffffffffffff16905090565b60008060009054906101000a900473ffffffffffffffffffffffffffffffffffffffff1673ffffffffffffffffffffffffffffffffffffffff163373ffffffffffffffffffffffffffffffffffffffff1614905090565b6113256112c6565b1515611399576040517f08c379a00000000000000000000000000000000000000000000000000000000081526004018080602001828103825260158152602001807f596f75206d75737420626520746865206f776e6572000000000000000000000081525060200191505060405180910390fd5b60008161ffff16111515611415576040517f08c379a00000000000000000000000000000000000000000000000000000000081526004018080602001828103825260148152602001807f5072697a652063616e206e6f206265207a65726f00000000000000000000000081525060200191505060405180910390fd5b60648161ffff1611151515611492576040517f08c379a000000000000000000000000000000000000000000000000000000000815260040180806020018281038252601d8152602001807f5072697a652063616e206e6f206265206d6f7265207468616e2031303000000081525060200191505060405180910390fd5b80600460086101000a81548161ffff021916908361ffff16021790555050565b600260009054906101000a90046fffffffffffffffffffffffffffffffff1681565b60035481565b60006064600460089054906101000a900461ffff1661ffff163073ffffffffffffffffffffffffffffffffffffffff16310281151561151557fe5b04905090565b600460009054906101000a900467ffffffffffffffff1681565b6000806000600181111561154557fe5b600960089054906101000a900460ff16600181111561156057fe5b1415156115d5576040517f08c379a00000000000000000000000000000000000000000000000000000000081526004018080602001828103825260168152602001807f4c6f7474657279206973206e6f742073656c6c696e670000000000000000000081525060200191505060405180910390fd5b600260009054906101000a90046fffffffffffffffffffffffffffffffff166fffffffffffffffffffffffffffffffff1660018054905011151515611682576040517f08c379a000000000000000000000000000000000000000000000000000000000815260040180806020018281038252601c8152602001807f4c6f7474657279207469636b6574732061726520616c6c20736f6c640000000081525060200191505060405180910390fd5b60035434101515156116fc576040517f08c379a000000000000000000000000000000000000000000000000000000000815260040180806020018281038252601a8152602001807f56616c75652062656c6c6f77207469636b65747320707269636500000000000081525060200191505060405180910390fd5b60013390806001815401808255809150509060018203906000526020600020016000909192909190916101000a81548173ffffffffffffffffffffffffffffffffffffffff021916908373ffffffffffffffffffffffffffffffffffffffff160217905550506001808054905003600460009054906101000a900467ffffffffffffffff1667ffffffffffffffff16600260009054906101000a90046fffffffffffffffffffffffffffffffff16026fffffffffffffffffffffffffffffffff160190508091505090565b60055481565b6000804442600160405160200180848152602001838152602001828054801561184b57602002820191906000526020600020905b8160009054906101000a900473ffffffffffffffffffffffffffffffffffffffff1673ffffffffffffffffffffffffffffffffffffffff1681526020019060010190808311611801575b505093505050506040516020818303038152906040526040518082805190602001908083835b6020831015156118965780518252602082019150602081019050602083039250611871565b6001836020036101000a0380198251168184511680821785525050505050509050019150506040518091039020600190049050600180549050818115156118d957fe5b0691505090565b828054828255906000526020600020908101928215611959579160200282015b828111156119585782518260006101000a81548173ffffffffffffffffffffffffffffffffffffffff021916908373ffffffffffffffffffffffffffffffffffffffff16021790555091602001919060010190611900565b5b509050611966919061196a565b5090565b6119aa91905b808211156119a657600081816101000a81549073ffffffffffffffffffffffffffffffffffffffff021916905550600101611970565b5090565b905600a165627a7a72305820b0023c158a91381f215547d51e8a96b0f5aea843db2f21d9c03a4207cb668a240029",
  "source": "// Defines the compiler version\npragma solidity ^0.4.24;\n\nimport './Library/Ownable.sol';\n\n// Main Lottery game smart contract\ncontract LotteryGame is Ownable {\n\n  address[] players; // Stores all the Lottery players\n\n  uint128 public maxTickets; // Maximum amount of players at the Lottery\n  uint256 public ticketValue; // Price of each ticket\n\n  uint64 public lotteryDraw; // Count how many draws we did so far\n\n  uint16 public prizePercentage; // percentage of the balance that goes for the prize\n\n  // Stores the last draw stats\n  uint256 public lastWinner;\n  address public lastWinnerAddress;\n  uint256 public lastWinnerPrize;\n\n  // Stores the total Lottery stats\n  uint256 public totalPrizesValue;\n  uint64 public totalPrizes;\n\n  enum GameStatus { Selling, Stopped } // The status of the game\n      \n  GameStatus status; // The curretn game status\n\n// Contructor\nconstructor() public {\n    status = GameStatus.Stopped; // After deploy game is inactive\n    lotteryDraw = 0; // Initialise for the first draw\n    prizePercentage = 95; // The defualt is 95% of the balance goes to the prize and 5% goes to the owner\n}\n\n// Setup a new Lottery\nfunction newLotteryGame(uint128 _maxTickets, uint256 _ticketValue, uint16 _prizePercentage) public onlyOwner {\n    require(status == GameStatus.Stopped, \"Lottery still selling\"); // Game must be over with a winner\n    require(address(this).balance == 0, \"Balance is not zeroed\"); // To start a new lotery balance must be 0 to avoid overlap with an unfinished draw\n    require(_maxTickets > 0, \"maxTickets can no be zero\");\n    require(_ticketValue > 0, \"ticketValue can no be zero\");\n    require(_prizePercentage > 0, \"prizePercentage xan no be zero\");\n    require(_prizePercentage <= 100, \"prizePercentage can no be more than 100\");\n\n    setMaxTickets(_maxTickets);\n\n    setTicketPrice(_ticketValue);\n\n    setPrizePercentage(_prizePercentage);\n\n    if (players.length > 0) {\n      players = new address[](0); // Remove all previous players      \n    }\n    \n    lotteryDraw++; // Increase the draw counter\n\n    status = GameStatus.Selling; // Game starts\n}\n\nfunction buyTicket() public payable returns (uint256) {\n    require(status == GameStatus.Selling, \"Lottery is not selling\"); // Game must be selling\n    require(players.length <= maxTickets, \"Lottery tickets are all sold\"); // Can not sell more than max tickets\n    require(msg.value >= ticketValue, \"Value bellow tickets price\"); // You must pay the ticket price to play. But avoid overpaying\n\n    // Add the new player to the players list for draw\n    players.push(msg.sender); \n\n    // Create the ticket number\n    uint256 ticketNumber = (maxTickets * lotteryDraw) + (players.length - 1);\n\n    // Return the ticket number\n    return ticketNumber;\n}\n\n\n// Run the draw, send the prize and return the winner to the owner control\nfunction runTheDraw() public onlyOwner returns (uint256) {\n  require(status == GameStatus.Selling, \"Lottery is not selling\"); // Game must be selling\n  require(players.length >= 2, \"Not enough players\"); // requires minimum 2 players\n  require(address(this).balance > 0, \"Balance is zero\"); // requires have a minimum balance\n  require(prizePercentage > 0, \"Percentage is zero\"); // requires have a minimum prize percentage\n\n  status = GameStatus.Stopped; // Game have a winner\n\n  // Get a random ticket number.\n  uint256 winnerTicket = getWinnerTicketNumber();\n  \n  // Get the winner address\n  address winnerAddress = players[winnerTicket];\n\n  uint256 balance = address(this).balance;\n    \n  // Get the prize amount.\n  uint256 prizeAmount = (balance * prizePercentage) / 100;\n  \n  // send the rest of the balance to the owner.\n  uint256 onwerAmount = balance - prizeAmount;\n\n  address owner = getOwner();\n\n  // Update game stats\n  lastWinner = (maxTickets * lotteryDraw) + winnerTicket;\n  lastWinnerAddress = winnerAddress;\n  lastWinnerPrize = prizeAmount;\n  totalPrizesValue += prizeAmount;\n  totalPrizes++;\n  \n  // We include the transfer here to avoid re-entrancy, this is the Checks-Effects-Interactions pattern  \n  // Transfer to the winner address\n  winnerAddress.transfer(prizeAmount);\n\n  if (onwerAmount > 0) {\n    owner.transfer(onwerAmount);\n  }\n\n  // Return the winner ticket number\n  return lastWinner;\n}\n\n// set the maximum tickets in the Lottery.\nfunction setMaxTickets(uint128 _maxTickets) public onlyOwner {\n    require(_maxTickets > 0, \"Tickets number can no be zero\");\n    maxTickets = _maxTickets;\n}\n\n// set the unitary ticket price.\nfunction setTicketPrice(uint256 _ticketValue) public onlyOwner {\n    require(_ticketValue > 0, \"Tickets price an no be zero\");\n    ticketValue = _ticketValue;\n}\n\n// set the Lottery prize as a percentage of the total tickets sold.\nfunction setPrizePercentage(uint16 _prizePercentage) public onlyOwner {\n  require(_prizePercentage > 0, \"Prize can no be zero\");\n  require(_prizePercentage <= 100, \"Prize can no be more than 100\");\n  prizePercentage = _prizePercentage;\n}\n\n// returns the current Lottery prize.\nfunction getTicketPrice() public view returns (uint256) {\n    return ticketValue;\n}\n\n// returns the current Lottery prize.\nfunction getLotteryPrize() public view returns (uint256) {\n    return (address(this).balance * prizePercentage) / 100;\n}\n\n// Get a random winner ticket index\nfunction getWinnerTicketNumber() internal view returns(uint256) {\n  // There are many diferent solution to implement a random number\n  // here we get the hash of concatenated bytes with current dificult, block time stamp, and the players address\n  uint256 randomNumber = uint256(keccak256(abi.encodePacked(block.difficulty, now, players)));\n\n  // Return a value in the range of winner numbers\n  return randomNumber % players.length;\n\n}\n\n}",
  "sourcePath": "/Users/claudiotorres/TorresLabs/DEVELOPMENT/LotteryGame/contracts/LotteryGame.sol",
  "compiler": {
    "name": "solc",
    "version": "0.4.24+commit.e67f0147.Emscripten.clang"
  },
  "schemaVersion": "2.0.1",
  "updatedAt": "2018-10-24T15:44:10.870Z"
}