{
  "contractName": "CoinsSale",
  "abi": [
    {
      "constant": false,
      "inputs": [],
      "name": "renounceOwnership",
      "outputs": [],
      "payable": false,
      "stateMutability": "nonpayable",
      "type": "function"
    },
    {
      "constant": true,
      "inputs": [],
      "name": "owner",
      "outputs": [
        {
          "name": "",
          "type": "address"
        }
      ],
      "payable": false,
      "stateMutability": "view",
      "type": "function"
    },
    {
      "constant": true,
      "inputs": [],
      "name": "isOwner",
      "outputs": [
        {
          "name": "",
          "type": "bool"
        }
      ],
      "payable": false,
      "stateMutability": "view",
      "type": "function"
    },
    {
      "constant": false,
      "inputs": [
        {
          "name": "newOwner",
          "type": "address"
        }
      ],
      "name": "transferOwnership",
      "outputs": [],
      "payable": false,
      "stateMutability": "nonpayable",
      "type": "function"
    },
    {
      "inputs": [],
      "payable": false,
      "stateMutability": "nonpayable",
      "type": "constructor"
    },
    {
      "payable": true,
      "stateMutability": "payable",
      "type": "fallback"
    },
    {
      "anonymous": false,
      "inputs": [
        {
          "indexed": true,
          "name": "purchaser",
          "type": "address"
        },
        {
          "indexed": true,
          "name": "destination",
          "type": "address"
        },
        {
          "indexed": false,
          "name": "weiValue",
          "type": "uint256"
        },
        {
          "indexed": false,
          "name": "tokenValue",
          "type": "uint256"
        }
      ],
      "name": "CasinoTokensPurchased",
      "type": "event"
    },
    {
      "anonymous": false,
      "inputs": [
        {
          "indexed": true,
          "name": "previousOwner",
          "type": "address"
        },
        {
          "indexed": true,
          "name": "newOwner",
          "type": "address"
        }
      ],
      "name": "OwnershipTransferred",
      "type": "event"
    },
    {
      "constant": true,
      "inputs": [],
      "name": "getToken",
      "outputs": [
        {
          "name": "",
          "type": "address"
        }
      ],
      "payable": false,
      "stateMutability": "view",
      "type": "function"
    },
    {
      "constant": true,
      "inputs": [],
      "name": "getExchangeRate",
      "outputs": [
        {
          "name": "",
          "type": "uint256"
        }
      ],
      "payable": false,
      "stateMutability": "view",
      "type": "function"
    },
    {
      "constant": false,
      "inputs": [
        {
          "name": "_newExchangeRate",
          "type": "uint256"
        },
        {
          "name": "_weiToToken",
          "type": "bool"
        }
      ],
      "name": "setRate",
      "outputs": [],
      "payable": false,
      "stateMutability": "nonpayable",
      "type": "function"
    },
    {
      "constant": false,
      "inputs": [
        {
          "name": "_wallet",
          "type": "address"
        }
      ],
      "name": "setWallet",
      "outputs": [],
      "payable": false,
      "stateMutability": "nonpayable",
      "type": "function"
    },
    {
      "constant": false,
      "inputs": [
        {
          "name": "_casinoToken",
          "type": "address"
        }
      ],
      "name": "setToken",
      "outputs": [],
      "payable": false,
      "stateMutability": "nonpayable",
      "type": "function"
    },
    {
      "constant": true,
      "inputs": [],
      "name": "getWallet",
      "outputs": [
        {
          "name": "",
          "type": "address"
        }
      ],
      "payable": false,
      "stateMutability": "view",
      "type": "function"
    },
    {
      "constant": true,
      "inputs": [],
      "name": "getSales",
      "outputs": [
        {
          "name": "",
          "type": "uint256"
        }
      ],
      "payable": false,
      "stateMutability": "view",
      "type": "function"
    },
    {
      "constant": false,
      "inputs": [
        {
          "name": "_destination",
          "type": "address"
        }
      ],
      "name": "buyCasinoTokens",
      "outputs": [],
      "payable": true,
      "stateMutability": "payable",
      "type": "function"
    }
  ],
  "bytecode": "0x608060405234801561001057600080fd5b50336000806101000a81548173ffffffffffffffffffffffffffffffffffffffff021916908373ffffffffffffffffffffffffffffffffffffffff1602179055506000809054906101000a900473ffffffffffffffffffffffffffffffffffffffff1673ffffffffffffffffffffffffffffffffffffffff16600073ffffffffffffffffffffffffffffffffffffffff167f8be0079c531659141344cd1fd0a4f28419497f9722a3daafe3b4186f6b6457e060405160405180910390a360018081905550600160ff166005819055506001600660006101000a81548160ff021916908315150217905550610c51806101096000396000f3006080604052600436106100ba576000357c0100000000000000000000000000000000000000000000000000000000900463ffffffff16806306eba205146100c55780630d83304c146100fb5780631329960414610126578063144fa6d71461017d57806321df0da7146101c05780636f81bdd814610217578063715018a6146102505780638da5cb5b146102675780638f32d59b146102be578063deaa59df146102ed578063e6aa216c14610330578063f2fde38b1461035b575b6100c33361039e565b005b6100f9600480360381019080803573ffffffffffffffffffffffffffffffffffffffff16906020019092919050505061039e565b005b34801561010757600080fd5b5061011061061a565b6040518082815260200191505060405180910390f35b34801561013257600080fd5b5061013b610637565b604051808273ffffffffffffffffffffffffffffffffffffffff1673ffffffffffffffffffffffffffffffffffffffff16815260200191505060405180910390f35b34801561018957600080fd5b506101be600480360381019080803573ffffffffffffffffffffffffffffffffffffffff169060200190929190505050610674565b005b3480156101cc57600080fd5b506101d561076a565b604051808273ffffffffffffffffffffffffffffffffffffffff1673ffffffffffffffffffffffffffffffffffffffff16815260200191505060405180910390f35b34801561022357600080fd5b5061024e60048036038101908080359060200190929190803515159060200190929190505050610794565b005b34801561025c57600080fd5b50610265610844565b005b34801561027357600080fd5b5061027c610916565b604051808273ffffffffffffffffffffffffffffffffffffffff1673ffffffffffffffffffffffffffffffffffffffff16815260200191505060405180910390f35b3480156102ca57600080fd5b506102d361093f565b604051808215151515815260200191505060405180910390f35b3480156102f957600080fd5b5061032e600480360381019080803573ffffffffffffffffffffffffffffffffffffffff169060200190929190505050610996565b005b34801561033c57600080fd5b50610345610a29565b6040518082815260200191505060405180910390f35b34801561036757600080fd5b5061039c600480360381019080803573ffffffffffffffffffffffffffffffffffffffff169060200190929190505050610a33565b005b6000806000600180600082825401925050819055506001549050600073ffffffffffffffffffffffffffffffffffffffff168473ffffffffffffffffffffffffffffffffffffffff16141515156103f457600080fd5b6000341415151561040457600080fd5b34925061041083610a52565b915061042783600754610aa290919063ffffffff16565b600781905550600360009054906101000a900473ffffffffffffffffffffffffffffffffffffffff1673ffffffffffffffffffffffffffffffffffffffff1663a9059cbb85846040518363ffffffff167c0100000000000000000000000000000000000000000000000000000000028152600401808373ffffffffffffffffffffffffffffffffffffffff1673ffffffffffffffffffffffffffffffffffffffff16815260200182815260200192505050602060405180830381600087803b1580156104f257600080fd5b505af1158015610506573d6000803e3d6000fd5b505050506040513d602081101561051c57600080fd5b8101908080519060200190929190505050508373ffffffffffffffffffffffffffffffffffffffff163373ffffffffffffffffffffffffffffffffffffffff167f024f091568d9a56d9ec2b8b9714b152e63a8e92a9f89fe728067d6b8dff14c128585604051808381526020018281526020019250505060405180910390a3600460009054906101000a900473ffffffffffffffffffffffffffffffffffffffff1673ffffffffffffffffffffffffffffffffffffffff166108fc349081150290604051600060405180830381858888f19350505050158015610603573d6000803e3d6000fd5b506001548114151561061457600080fd5b50505050565b600061062461093f565b151561062f57600080fd5b600754905090565b600061064161093f565b151561064c57600080fd5b600460009054906101000a900473ffffffffffffffffffffffffffffffffffffffff16905090565b61067c61093f565b151561068757600080fd5b600073ffffffffffffffffffffffffffffffffffffffff168173ffffffffffffffffffffffffffffffffffffffff16141515156106c357600080fd5b80600260006101000a81548173ffffffffffffffffffffffffffffffffffffffff021916908373ffffffffffffffffffffffffffffffffffffffff160217905550600260009054906101000a900473ffffffffffffffffffffffffffffffffffffffff16600360006101000a81548173ffffffffffffffffffffffffffffffffffffffff021916908373ffffffffffffffffffffffffffffffffffffffff16021790555050565b6000600260009054906101000a900473ffffffffffffffffffffffffffffffffffffffff16905090565b61079c61093f565b15156107a757600080fd5b60008211151561081f576040517f08c379a000000000000000000000000000000000000000000000000000000000815260040180806020018281038252601e8152602001807f45786368616e676520726174652063616e206e6f74206265207a65726f2e000081525060200191505060405180910390fd5b8160058190555080600660006101000a81548160ff0219169083151502179055505050565b61084c61093f565b151561085757600080fd5b600073ffffffffffffffffffffffffffffffffffffffff166000809054906101000a900473ffffffffffffffffffffffffffffffffffffffff1673ffffffffffffffffffffffffffffffffffffffff167f8be0079c531659141344cd1fd0a4f28419497f9722a3daafe3b4186f6b6457e060405160405180910390a360008060006101000a81548173ffffffffffffffffffffffffffffffffffffffff021916908373ffffffffffffffffffffffffffffffffffffffff160217905550565b60008060009054906101000a900473ffffffffffffffffffffffffffffffffffffffff16905090565b60008060009054906101000a900473ffffffffffffffffffffffffffffffffffffffff1673ffffffffffffffffffffffffffffffffffffffff163373ffffffffffffffffffffffffffffffffffffffff1614905090565b61099e61093f565b15156109a957600080fd5b600073ffffffffffffffffffffffffffffffffffffffff168173ffffffffffffffffffffffffffffffffffffffff16141515156109e557600080fd5b80600460006101000a81548173ffffffffffffffffffffffffffffffffffffffff021916908373ffffffffffffffffffffffffffffffffffffffff16021790555050565b6000600554905090565b610a3b61093f565b1515610a4657600080fd5b610a4f81610ac3565b50565b6000600660009054906101000a900460ff1615610a8557610a7e60055483610bbd90919063ffffffff16565b9050610a9d565b610a9a60055483610bfb90919063ffffffff16565b90505b919050565b6000808284019050838110151515610ab957600080fd5b8091505092915050565b600073ffffffffffffffffffffffffffffffffffffffff168173ffffffffffffffffffffffffffffffffffffffff1614151515610aff57600080fd5b8073ffffffffffffffffffffffffffffffffffffffff166000809054906101000a900473ffffffffffffffffffffffffffffffffffffffff1673ffffffffffffffffffffffffffffffffffffffff167f8be0079c531659141344cd1fd0a4f28419497f9722a3daafe3b4186f6b6457e060405160405180910390a3806000806101000a81548173ffffffffffffffffffffffffffffffffffffffff021916908373ffffffffffffffffffffffffffffffffffffffff16021790555050565b6000806000841415610bd25760009150610bf4565b8284029050828482811515610be357fe5b04141515610bf057600080fd5b8091505b5092915050565b600080600083111515610c0d57600080fd5b8284811515610c1857fe5b04905080915050929150505600a165627a7a72305820eb38edefd6b901906f10280077c9bff0a281abd816cd68247614f8c5134121310029",
  "source": "pragma solidity ^0.4.24;\n\nimport \"./contracts/token/ERC20/IERC20.sol\";\nimport \"./contracts/math/SafeMath.sol\";\n//import \"./contracts/token/ERC20/SafeERC20.sol\";\nimport \"./contracts/utils/ReentrancyGuard.sol\";\nimport \"./contracts/ownership/Ownable.sol\";\n\n// Allows to sell Tokens to players\n// Note that you must send tokens to this contract to be able to sell\ncontract CoinsSale is Ownable, ReentrancyGuard {\n    using SafeMath for uint256;\n    //using SafeERC20 for IERC20;\n\n    uint8 constant initalExchangeRate = 1;\n    bool constant initalweiToToken = true;\n\n    // The casino token to sold\n    //IERC20 private casinoToken;\n    address private casinoTokenAddress;\n\n    IERC20 private casinoToken;\n\n    // Address to receive sales funds\n    address private casinoWallet;\n\n    // Is the value in Casino Token units you get from 1 wei\n    uint256 private exchangeRate; \n    // If true exchangeRate is the value in Casino Token units you get from 1 wei\n    // If false exchangeRate is the value in wei you get from Casino Token units\n    bool private weiToToken;\n\n    // Amount sold in wei\n    uint256 private amountSold;\n\n    // Event for casino token purchases\n    event CasinoTokensPurchased(address indexed purchaser, address indexed destination, uint256 weiValue, uint256 tokenValue);\n\n    // At the deploy define exchange rate, where to send the funds, and our Cosino Token address\n    constructor () public {\n        exchangeRate = initalExchangeRate;\n        weiToToken = initalweiToToken;\n    }\n\n    // Public functions\n    // Get casino token address\n    function getToken() public view returns (address) {\n        return casinoTokenAddress;\n    }\n\n    // Get exchange rate\n    function getExchangeRate() public view returns (uint256) {\n        return exchangeRate;\n    }\n\n    // Owner functions\n    // Set a new exchange rate\n    function setRate(uint256 _newExchangeRate, bool _weiToToken) public onlyOwner {\n        require(_newExchangeRate > 0, \"Exchange rate can not be zero.\");\n       exchangeRate = _newExchangeRate;\n        weiToToken = _weiToToken;\n    }\n\n    // Set the casino wallet address\n    function setWallet(address _wallet) public onlyOwner {\n        require(_wallet != address(0));\n        casinoWallet = _wallet;\n    }\n\n    // Set the token address\n    function setToken(address _casinoToken) public onlyOwner {\n        require(_casinoToken != address(0));\n        casinoTokenAddress = _casinoToken;\n        casinoToken = IERC20(casinoTokenAddress);\n    }\n\n    // Get casino wallet address\n    function getWallet() public onlyOwner view returns (address) {\n        return casinoWallet;\n    }\n\n    // Get total sold\n    function getSales() public onlyOwner view returns (uint256) {\n        return amountSold;\n    }\n\n    // Direct purchase function\n    function () external payable {\n        buyCasinoTokens(msg.sender);\n    }\n\n    // Buy casino tokens. If you call directly you can buy tokens for another player\n    function buyCasinoTokens(address _destination) public nonReentrant payable {\n        require(_destination != address(0));\n        require(msg.value != 0);\n\n        // Get the amount sent\n        uint256 purchaseAmount = msg.value;\n    \n        // Convert wei in casino tokens\n        uint256 tokenAmount = convertEtherToToken(purchaseAmount);\n\n        // update total sold\n        amountSold = amountSold.add(purchaseAmount);\n\n        // Send tokens to user\n        casinoToken.transfer(_destination, tokenAmount);\n\n        // Emit event to log transaction\n        emit CasinoTokensPurchased(msg.sender, _destination, purchaseAmount, tokenAmount);\n\n        casinoWallet.transfer(msg.value);\n    }\n\n    function convertEtherToToken(uint256 _ethAmount) internal view returns (uint256) {\n        // If true exchangeRate is the value in Casino Token units you get from 1 wei\n        if (weiToToken) {\n            return _ethAmount.mul(exchangeRate);\n        }\n        // If false exchangeRate is the value in wei you get from Casino Token units\n        return _ethAmount.div(exchangeRate);\n\n    }\n}\n\n",
  "sourcePath": "/Users/claudiotorres/TorresLabs/DEVELOPMENT/WORKINPROGRESS/Ethereum-Game-Development-Projects/Chapter-4/Truffle/SlotGame/contracts/CoinsSale.sol",
  "compiler": {
    "name": "solc",
    "version": "0.4.24+commit.e67f0147.Emscripten.clang"
  },
  "schemaVersion": "2.0.1",
  "updatedAt": "2018-12-10T16:45:09.091Z"
}