{
  "contractName": "SlotMachine",
  "abi": [
    {
      "constant": false,
      "inputs": [],
      "name": "renounceOwnership",
      "outputs": [],
      "payable": false,
      "stateMutability": "nonpayable",
      "type": "function"
    },
    {
      "constant": true,
      "inputs": [],
      "name": "owner",
      "outputs": [
        {
          "name": "",
          "type": "address"
        }
      ],
      "payable": false,
      "stateMutability": "view",
      "type": "function"
    },
    {
      "constant": true,
      "inputs": [],
      "name": "isOwner",
      "outputs": [
        {
          "name": "",
          "type": "bool"
        }
      ],
      "payable": false,
      "stateMutability": "view",
      "type": "function"
    },
    {
      "constant": false,
      "inputs": [
        {
          "name": "newOwner",
          "type": "address"
        }
      ],
      "name": "transferOwnership",
      "outputs": [],
      "payable": false,
      "stateMutability": "nonpayable",
      "type": "function"
    },
    {
      "inputs": [],
      "payable": false,
      "stateMutability": "nonpayable",
      "type": "constructor"
    },
    {
      "payable": true,
      "stateMutability": "payable",
      "type": "fallback"
    },
    {
      "anonymous": false,
      "inputs": [
        {
          "indexed": true,
          "name": "player",
          "type": "address"
        },
        {
          "indexed": false,
          "name": "playerbet",
          "type": "uint256"
        },
        {
          "indexed": false,
          "name": "playerprize",
          "type": "uint256"
        },
        {
          "indexed": false,
          "name": "spinslot1",
          "type": "uint256"
        },
        {
          "indexed": false,
          "name": "spinslot2",
          "type": "uint256"
        },
        {
          "indexed": false,
          "name": "spinslot3",
          "type": "uint256"
        }
      ],
      "name": "SpinResult",
      "type": "event"
    },
    {
      "anonymous": false,
      "inputs": [
        {
          "indexed": true,
          "name": "previousOwner",
          "type": "address"
        },
        {
          "indexed": true,
          "name": "newOwner",
          "type": "address"
        }
      ],
      "name": "OwnershipTransferred",
      "type": "event"
    },
    {
      "constant": false,
      "inputs": [
        {
          "name": "_casinoToken",
          "type": "address"
        }
      ],
      "name": "setToken",
      "outputs": [],
      "payable": false,
      "stateMutability": "nonpayable",
      "type": "function"
    },
    {
      "constant": false,
      "inputs": [
        {
          "name": "_wallet",
          "type": "address"
        },
        {
          "name": "_value",
          "type": "uint256"
        }
      ],
      "name": "extractCoins",
      "outputs": [],
      "payable": false,
      "stateMutability": "nonpayable",
      "type": "function"
    },
    {
      "constant": false,
      "inputs": [
        {
          "name": "_tokenAmount",
          "type": "uint256"
        }
      ],
      "name": "depositCoins",
      "outputs": [],
      "payable": false,
      "stateMutability": "nonpayable",
      "type": "function"
    },
    {
      "constant": true,
      "inputs": [],
      "name": "getCoins",
      "outputs": [
        {
          "name": "",
          "type": "uint256"
        }
      ],
      "payable": false,
      "stateMutability": "view",
      "type": "function"
    },
    {
      "constant": false,
      "inputs": [
        {
          "name": "_bet",
          "type": "uint256"
        }
      ],
      "name": "setBet",
      "outputs": [],
      "payable": false,
      "stateMutability": "nonpayable",
      "type": "function"
    },
    {
      "constant": true,
      "inputs": [],
      "name": "getBet",
      "outputs": [
        {
          "name": "",
          "type": "uint256"
        }
      ],
      "payable": false,
      "stateMutability": "view",
      "type": "function"
    },
    {
      "constant": false,
      "inputs": [],
      "name": "runSpin",
      "outputs": [],
      "payable": false,
      "stateMutability": "nonpayable",
      "type": "function"
    },
    {
      "constant": true,
      "inputs": [],
      "name": "lastSpinSlot1",
      "outputs": [
        {
          "name": "",
          "type": "uint256"
        }
      ],
      "payable": false,
      "stateMutability": "view",
      "type": "function"
    },
    {
      "constant": true,
      "inputs": [],
      "name": "lastSpinSlot2",
      "outputs": [
        {
          "name": "",
          "type": "uint256"
        }
      ],
      "payable": false,
      "stateMutability": "view",
      "type": "function"
    },
    {
      "constant": true,
      "inputs": [],
      "name": "lastSpinSlot3",
      "outputs": [
        {
          "name": "",
          "type": "uint256"
        }
      ],
      "payable": false,
      "stateMutability": "view",
      "type": "function"
    },
    {
      "constant": true,
      "inputs": [],
      "name": "lastPrize",
      "outputs": [
        {
          "name": "",
          "type": "uint256"
        }
      ],
      "payable": false,
      "stateMutability": "view",
      "type": "function"
    }
  ],
  "bytecode": "0x6080604052600060175534801561001557600080fd5b50336000806101000a81548173ffffffffffffffffffffffffffffffffffffffff021916908373ffffffffffffffffffffffffffffffffffffffff1602179055506000809054906101000a900473ffffffffffffffffffffffffffffffffffffffff1673ffffffffffffffffffffffffffffffffffffffff16600073ffffffffffffffffffffffffffffffffffffffff167f8be0079c531659141344cd1fd0a4f28419497f9722a3daafe3b4186f6b6457e060405160405180910390a3600180819055506001601c60006101000a81548160ff021916908360018111156100f857fe5b0217905550611e6b8061010c6000396000f3006080604052600436106100db576000357c0100000000000000000000000000000000000000000000000000000000900463ffffffff16806309642cf0146100e057806313c390ef1461010d578063144fa6d71461013857806320835e8c1461017b57806329968a7c146101a657806334f21ff5146101d157806351196cf91461021e578063715018a61461024957806382dbf36a146102605780638da5cb5b1461028b5780638f32d59b146102e25780639d400a0b14610311578063bb0a082c1461033c578063e8399cc614610353578063f2fde38b14610380575b600080fd5b3480156100ec57600080fd5b5061010b600480360381019080803590602001909291905050506103c3565b005b34801561011957600080fd5b506101226107b9565b6040518082815260200191505060405180910390f35b34801561014457600080fd5b50610179600480360381019080803573ffffffffffffffffffffffffffffffffffffffff169060200190929190505050610800565b005b34801561018757600080fd5b50610190610893565b6040518082815260200191505060405180910390f35b3480156101b257600080fd5b506101bb6108da565b6040518082815260200191505060405180910390f35b3480156101dd57600080fd5b5061021c600480360381019080803573ffffffffffffffffffffffffffffffffffffffff16906020019092919080359060200190929190505050610924565b005b34801561022a57600080fd5b50610233610aca565b6040518082815260200191505060405180910390f35b34801561025557600080fd5b5061025e610b14565b005b34801561026c57600080fd5b50610275610be6565b6040518082815260200191505060405180910390f35b34801561029757600080fd5b506102a0610c30565b604051808273ffffffffffffffffffffffffffffffffffffffff1673ffffffffffffffffffffffffffffffffffffffff16815260200191505060405180910390f35b3480156102ee57600080fd5b506102f7610c59565b604051808215151515815260200191505060405180910390f35b34801561031d57600080fd5b50610326610cb0565b6040518082815260200191505060405180910390f35b34801561034857600080fd5b50610351610cf7565b005b34801561035f57600080fd5b5061037e600480360381019080803590602001909291905050506111c7565b005b34801561038c57600080fd5b506103c1600480360381019080803573ffffffffffffffffffffffffffffffffffffffff16906020019092919050505061146c565b005b6000600180600082825401925050819055506001549050600060018111156103e757fe5b601c60009054906101000a900460ff16600181111561040257fe5b141515610477576040517f08c379a00000000000000000000000000000000000000000000000000000000081526004018080602001828103825260168152602001807f4d616368696e65206973206e6f742072756e6e696e670000000000000000000081525060200191505060405180910390fd5b6000821115156104ef576040517f08c379a00000000000000000000000000000000000000000000000000000000081526004018080602001828103825260158152602001807f56616c75652063616e206e6f74206265207a65726f000000000000000000000081525060200191505060405180910390fd5b81600260009054906101000a900473ffffffffffffffffffffffffffffffffffffffff1673ffffffffffffffffffffffffffffffffffffffff1663dd62ed3e33306040518363ffffffff167c0100000000000000000000000000000000000000000000000000000000028152600401808373ffffffffffffffffffffffffffffffffffffffff1673ffffffffffffffffffffffffffffffffffffffff1681526020018273ffffffffffffffffffffffffffffffffffffffff1673ffffffffffffffffffffffffffffffffffffffff16815260200192505050602060405180830381600087803b1580156105e157600080fd5b505af11580156105f5573d6000803e3d6000fd5b505050506040513d602081101561060b57600080fd5b8101908080519060200190929190505050101515156106b8576040517f08c379a00000000000000000000000000000000000000000000000000000000081526004018080602001828103825260348152602001807f55736520436173696e6f546f6b656e2e617070726f766520746f20616c6c6f7781526020017f207468697320746f6b656e207472616e7366657200000000000000000000000081525060400191505060405180910390fd5b6106c13361148b565b610710333084600260009054906101000a900473ffffffffffffffffffffffffffffffffffffffff1673ffffffffffffffffffffffffffffffffffffffff16611506909392919063ffffffff16565b61076282601860003373ffffffffffffffffffffffffffffffffffffffff1673ffffffffffffffffffffffffffffffffffffffff1681526020019081526020016000205461162990919063ffffffff16565b601860003373ffffffffffffffffffffffffffffffffffffffff1673ffffffffffffffffffffffffffffffffffffffff16815260200190815260200160002081905550600154811415156107b557600080fd5b5050565b6000601860003373ffffffffffffffffffffffffffffffffffffffff1673ffffffffffffffffffffffffffffffffffffffff16815260200190815260200160002054905090565b610808610c59565b151561081357600080fd5b600073ffffffffffffffffffffffffffffffffffffffff168173ffffffffffffffffffffffffffffffffffffffff161415151561084f57600080fd5b80600260006101000a81548173ffffffffffffffffffffffffffffffffffffffff021916908373ffffffffffffffffffffffffffffffffffffffff16021790555050565b6000601960003373ffffffffffffffffffffffffffffffffffffffff1673ffffffffffffffffffffffffffffffffffffffff16815260200190815260200160002054905090565b6000601a60003373ffffffffffffffffffffffffffffffffffffffff1673ffffffffffffffffffffffffffffffffffffffff16815260200190815260200160002060010154905090565b61092c610c59565b151561093757600080fd5b600260009054906101000a900473ffffffffffffffffffffffffffffffffffffffff1673ffffffffffffffffffffffffffffffffffffffff166370a08231306040518263ffffffff167c0100000000000000000000000000000000000000000000000000000000028152600401808273ffffffffffffffffffffffffffffffffffffffff1673ffffffffffffffffffffffffffffffffffffffff168152602001915050602060405180830381600087803b1580156109f457600080fd5b505af1158015610a08573d6000803e3d6000fd5b505050506040513d6020811015610a1e57600080fd5b81019080805190602001909291905050508111151515610a3d57600080fd5b600073ffffffffffffffffffffffffffffffffffffffff168273ffffffffffffffffffffffffffffffffffffffff1614151515610a7957600080fd5b610ac63082600260009054906101000a900473ffffffffffffffffffffffffffffffffffffffff1673ffffffffffffffffffffffffffffffffffffffff1661164a9092919063ffffffff16565b5050565b6000601a60003373ffffffffffffffffffffffffffffffffffffffff1673ffffffffffffffffffffffffffffffffffffffff16815260200190815260200160002060000154905090565b610b1c610c59565b1515610b2757600080fd5b600073ffffffffffffffffffffffffffffffffffffffff166000809054906101000a900473ffffffffffffffffffffffffffffffffffffffff1673ffffffffffffffffffffffffffffffffffffffff167f8be0079c531659141344cd1fd0a4f28419497f9722a3daafe3b4186f6b6457e060405160405180910390a360008060006101000a81548173ffffffffffffffffffffffffffffffffffffffff021916908373ffffffffffffffffffffffffffffffffffffffff160217905550565b6000601a60003373ffffffffffffffffffffffffffffffffffffffff1673ffffffffffffffffffffffffffffffffffffffff16815260200190815260200160002060020154905090565b60008060009054906101000a900473ffffffffffffffffffffffffffffffffffffffff16905090565b60008060009054906101000a900473ffffffffffffffffffffffffffffffffffffffff1673ffffffffffffffffffffffffffffffffffffffff163373ffffffffffffffffffffffffffffffffffffffff1614905090565b6000601b60003373ffffffffffffffffffffffffffffffffffffffff1673ffffffffffffffffffffffffffffffffffffffff16815260200190815260200160002054905090565b600080600180600082825401925050819055506001549050601960003373ffffffffffffffffffffffffffffffffffffffff1673ffffffffffffffffffffffffffffffffffffffff16815260200190815260200160002054601860003373ffffffffffffffffffffffffffffffffffffffff1673ffffffffffffffffffffffffffffffffffffffff1681526020019081526020016000205410151515610e05576040517f08c379a000000000000000000000000000000000000000000000000000000000815260040180806020018281038252601a8152602001807f4f7574206f6620636f696e7320666f722074686973207370696e00000000000081525060200191505060405180910390fd5b610e96601960003373ffffffffffffffffffffffffffffffffffffffff1673ffffffffffffffffffffffffffffffffffffffff16815260200190815260200160002054601860003373ffffffffffffffffffffffffffffffffffffffff1673ffffffffffffffffffffffffffffffffffffffff1681526020019081526020016000205461173890919063ffffffff16565b601860003373ffffffffffffffffffffffffffffffffffffffff1673ffffffffffffffffffffffffffffffffffffffff16815260200190815260200160002081905550610ee1611759565b601a60003373ffffffffffffffffffffffffffffffffffffffff1673ffffffffffffffffffffffffffffffffffffffff168152602001908152602001600020600082015181600001556020820151816001015560408201518160020155905050610fb2601a60003373ffffffffffffffffffffffffffffffffffffffff1673ffffffffffffffffffffffffffffffffffffffff1681526020019081526020016000206060604051908101604052908160008201548152602001600182015481526020016002820154815250506118cb565b9150610fbe33836119cf565b601b60003373ffffffffffffffffffffffffffffffffffffffff1673ffffffffffffffffffffffffffffffffffffffff168152602001908152602001600020819055503373ffffffffffffffffffffffffffffffffffffffff167fc25571604657f2c802d5574308810e98175c639ab6fb4b1280d5d098fbed7e74601960003373ffffffffffffffffffffffffffffffffffffffff1673ffffffffffffffffffffffffffffffffffffffff16815260200190815260200160002054601b60003373ffffffffffffffffffffffffffffffffffffffff1673ffffffffffffffffffffffffffffffffffffffff16815260200190815260200160002054601a60003373ffffffffffffffffffffffffffffffffffffffff1673ffffffffffffffffffffffffffffffffffffffff16815260200190815260200160002060000154601a60003373ffffffffffffffffffffffffffffffffffffffff1673ffffffffffffffffffffffffffffffffffffffff16815260200190815260200160002060020154601a60003373ffffffffffffffffffffffffffffffffffffffff1673ffffffffffffffffffffffffffffffffffffffff16815260200190815260200160002060020154604051808681526020018581526020018481526020018381526020018281526020019550505050505060405180910390a2600154811415156111c357600080fd5b5050565b80601860003373ffffffffffffffffffffffffffffffffffffffff1673ffffffffffffffffffffffffffffffffffffffff168152602001908152602001600020541015151561127e576040517f08c379a00000000000000000000000000000000000000000000000000000000081526004018080602001828103825260198152602001807f4f7574206f6620636f696e7320666f722074686973206265740000000000000081525060200191505060405180910390fd5b611292600a82611a7590919063ffffffff16565b600260009054906101000a900473ffffffffffffffffffffffffffffffffffffffff1673ffffffffffffffffffffffffffffffffffffffff166370a08231306040518263ffffffff167c0100000000000000000000000000000000000000000000000000000000028152600401808273ffffffffffffffffffffffffffffffffffffffff1673ffffffffffffffffffffffffffffffffffffffff168152602001915050602060405180830381600087803b15801561134f57600080fd5b505af1158015611363573d6000803e3d6000fd5b505050506040513d602081101561137957600080fd5b8101908080519060200190929190505050111515611425576040517f08c379a00000000000000000000000000000000000000000000000000000000081526004018080602001828103825260298152602001807f4d616368696e65206f7574206f6620746f6b656e7320746f2070617920666f7281526020017f207468697320626574000000000000000000000000000000000000000000000081525060400191505060405180910390fd5b80601960003373ffffffffffffffffffffffffffffffffffffffff1673ffffffffffffffffffffffffffffffffffffffff1681526020019081526020016000208190555050565b611474610c59565b151561147f57600080fd5b61148881611ab3565b50565b80600360175460148110151561149d57fe5b0160006101000a81548173ffffffffffffffffffffffffffffffffffffffff021916908373ffffffffffffffffffffffffffffffffffffffff16021790555060176000815480929190600101919050555060146017541015156115035760006017819055505b50565b8373ffffffffffffffffffffffffffffffffffffffff166323b872dd8484846040518463ffffffff167c0100000000000000000000000000000000000000000000000000000000028152600401808473ffffffffffffffffffffffffffffffffffffffff1673ffffffffffffffffffffffffffffffffffffffff1681526020018373ffffffffffffffffffffffffffffffffffffffff1673ffffffffffffffffffffffffffffffffffffffff1681526020018281526020019350505050602060405180830381600087803b1580156115dd57600080fd5b505af11580156115f1573d6000803e3d6000fd5b505050506040513d602081101561160757600080fd5b8101908080519060200190929190505050151561162357600080fd5b50505050565b600080828401905083811015151561164057600080fd5b8091505092915050565b8273ffffffffffffffffffffffffffffffffffffffff1663a9059cbb83836040518363ffffffff167c0100000000000000000000000000000000000000000000000000000000028152600401808373ffffffffffffffffffffffffffffffffffffffff1673ffffffffffffffffffffffffffffffffffffffff16815260200182815260200192505050602060405180830381600087803b1580156116ed57600080fd5b505af1158015611701573d6000803e3d6000fd5b505050506040513d602081101561171757600080fd5b8101908080519060200190929190505050151561173357600080fd5b505050565b60008083831115151561174a57600080fd5b82840390508091505092915050565b611761611e1d565b600080600080600080444260036040516020018084815260200183815260200182601480156117db576020028201915b8160009054906101000a900473ffffffffffffffffffffffffffffffffffffffff1673ffffffffffffffffffffffffffffffffffffffff1681526020019060010190808311611791575b505093505050506040516020818303038152906040526040518082805190602001908083835b6020831015156118265780518252602082019150602081019050602083039250611801565b6001836020036101000a038019825116818451168082178552505050505050905001915050604051809103902060019004955060148681151561186557fe5b06945060148681151561187457fe5b04935060148481151561188357fe5b06925060148481151561189257fe5b0491506014828115156118a157fe5b06905060606040519081016040528086815260200184815260200182815250965050505050505090565b60006118e4826000015183602001518460400151611bad565b156118f257600190506119ca565b611909826000015183602001518460400151611bd4565b1561191757600390506119ca565b61192982600001518360200151611bfb565b8015611943575061194282604001518360200151611c2c565b5b1561195157600690506119ca565b61196382600001518360200151611c2c565b801561197d575061197c82604001518360200151611bfb565b5b1561198b57600890506119ca565b61199d82600001518360200151611c5c565b80156119b757506119b682604001518360200151611c5c565b5b156119c557600a90506119ca565b600090505b919050565b600080611a1c84601960008773ffffffffffffffffffffffffffffffffffffffff1673ffffffffffffffffffffffffffffffffffffffff1681526020019081526020016000205485611c69565b9050611a6b8482600260009054906101000a900473ffffffffffffffffffffffffffffffffffffffff1673ffffffffffffffffffffffffffffffffffffffff1661164a9092919063ffffffff16565b8091505092915050565b6000806000841415611a8a5760009150611aac565b8284029050828482811515611a9b57fe5b04141515611aa857600080fd5b8091505b5092915050565b600073ffffffffffffffffffffffffffffffffffffffff168173ffffffffffffffffffffffffffffffffffffffff1614151515611aef57600080fd5b8073ffffffffffffffffffffffffffffffffffffffff166000809054906101000a900473ffffffffffffffffffffffffffffffffffffffff1673ffffffffffffffffffffffffffffffffffffffff167f8be0079c531659141344cd1fd0a4f28419497f9722a3daafe3b4186f6b6457e060405160405180910390a3806000806101000a81548173ffffffffffffffffffffffffffffffffffffffff021916908373ffffffffffffffffffffffffffffffffffffffff16021790555050565b6000611bb98484611bfb565b8015611bcb5750611bca8383611bfb565b5b90509392505050565b6000611be08484611c2c565b8015611bf25750611bf18383611c2c565b5b90509392505050565b6000808390506000811415611c165760016014039050611c20565b8080600190039150505b82811491505092915050565b6000808390506001601403811415611c475760009050611c50565b80806001019150505b82811491505092915050565b6000818314905092915050565b60008073ffffffffffffffffffffffffffffffffffffffff168473ffffffffffffffffffffffffffffffffffffffff1614151515611d0f576040517f08c379a000000000000000000000000000000000000000000000000000000000815260040180806020018281038252601e8152602001807f506c6179657220616464726573732063616e206e6f74206265207a65726f000081525060200191505060405180910390fd5b6004600a028211151515611db1576040517f08c379a00000000000000000000000000000000000000000000000000000000081526004018080602001828103825260258152602001807f4572726f72207768696c6520747279696e6720746f2063616c63756c6174652081526020017f7072697a6500000000000000000000000000000000000000000000000000000081525060400191505060405180910390fd5b6000821415611dc35760009050611dec565b611de96004611ddb8585611a7590919063ffffffff16565b611df390919063ffffffff16565b90505b9392505050565b600080600083111515611e0557600080fd5b8284811515611e1057fe5b0490508091505092915050565b60606040519081016040528060008152602001600081526020016000815250905600a165627a7a72305820957876c6afb484edd5d128c32ed3e0c2dcaba101328265264d7e47c607669da90029",
  "source": "// Defines the compiler version\npragma solidity ^0.4.24;\n\nimport \"./contracts/token/ERC20/SafeERC20.sol\";\nimport \"./contracts/ownership/Ownable.sol\";\nimport \"./contracts/token/ERC20/IERC20.sol\";\nimport \"./contracts/utils/ReentrancyGuard.sol\";\nimport \"./contracts/math/SafeMath.sol\";\n\n// The slot machine game contract\ncontract SlotMachine is Ownable, ReentrancyGuard {\n    using SafeMath for uint256;\n    using SafeERC20 for IERC20;\n\n    IERC20 private casinoToken; // The casino token to sold\n\n    uint constant reels = 3; // Total reels\n\n    uint constant symbols = 20; // Total symbols\n\n    uint constant maxPrize = 10; // Maximum prize\n\n    address[symbols] randomPlayers; // Stores 20 recent players for random number generation\n\n    uint index = 0; // randomPlayers pointer \n\n    // Slot after spin\n    struct Slots {\n        uint slot1;\n        uint slot2;\n        uint slot3;\n    }\n\n    // Store all players coins\n    mapping (address => uint) coins; \n    // Store all players bets       \n    mapping (address => uint) bets; \n    // Store all players last spins       \n    mapping (address => Slots) spins; \n    // Store all players last prizes       \n    mapping (address => uint) prizes; \n    \n    enum GameStatus { Running, Stopped } // The status of the game\n      \n    GameStatus status; // The curretn game status\n    \n    // Event with the result\n    // player, bet, prize, slot1, slot2, slot3\n    event SpinResult(address indexed player, uint playerbet, uint playerprize, uint spinslot1, uint spinslot2, uint spinslot3);// 0-> %5; 1 -> 80%; 2 -> loss, 3->error in callback;\n\n    // At the deploy define Casino Token address\n    constructor() public {\n        status = GameStatus.Stopped; // After deploy game is inactive\n    }\n    \n   // Do not acept Ether at this contract address\n    function () public payable {\n        revert();\n    }\n\n    // Set the token address\n    function setToken(address _casinoToken) public onlyOwner {\n        require(_casinoToken != address(0));\n        casinoToken = IERC20(_casinoToken);\n    }\n\n    // Set the token address\n    function extractCoins(address _wallet, uint _value) public onlyOwner {\n        require(_value <= casinoToken.balanceOf(this));\n        require(_wallet != address(0));\n       // Send coin tokens to the mahcine owner\n        casinoToken.safeTransfer(this, _value);\n    }\n\n    // To enter casino tokens player must first to call CasinoToken.approve(this, amount) to allow machine to get the tokens\n    // this contract will not be able to do the transfer on user's behalf.\n    function depositCoins(uint _tokenAmount) public nonReentrant {\n        require(status == GameStatus.Running, \"Machine is not running\"); // Game must be selling\n        require(_tokenAmount > 0, \"Value can not be zero\"); // You must enter a valid token amount\n        require(casinoToken.allowance(msg.sender, this) >= _tokenAmount, \"Use CasinoToken.approve to allow this token transfer\"); // User must allow this transfer first\n \n        // Add the new player to the players list for random number generation\n        addPlayer(msg.sender); \n\n        // Get tokens from the player\n        casinoToken.safeTransferFrom(msg.sender, this, _tokenAmount);\n\n        // Add token values as coins to the machine\n        coins[msg.sender] = coins[msg.sender].add(_tokenAmount);\n    }\n\n    // Get how many coins player have\n    function getCoins() public view returns (uint) {\n        return coins[msg.sender];\n    }\n \n    // Set player bet in coins\n    function setBet(uint _bet) public {\n        require(coins[msg.sender] >= _bet, \"Out of coins for this bet\");\n        require(casinoToken.balanceOf(this) > _bet.mul(maxPrize), \"Machine out of tokens to pay for this bet\");\n\n        // Set bet value to the player\n        bets[msg.sender] = _bet;\n    }\n\n    // Get current player bet\n    function getBet() public view returns (uint) {\n        return bets[msg.sender];\n    }\n\n    // Spin the slots\n    function runSpin() public nonReentrant {\n        require(coins[msg.sender] >= bets[msg.sender], \"Out of coins for this spin\");\n\n        // Get the player bet from the available coins\n        coins[msg.sender] = coins[msg.sender].sub(bets[msg.sender]);\n\n        // Get the symbol in each slot\n        spins[msg.sender] = getSpinResult();\n\n        // Check the result based on the paytable\n        uint paytableIndex = getPayTableResult(spins[msg.sender]);\n \n        // Check the prize\n        prizes[msg.sender] = payPrize(msg.sender, paytableIndex);\n        \n        emit SpinResult(msg.sender, bets[msg.sender], prizes[msg.sender], spins[msg.sender].slot1, spins[msg.sender].slot3, spins[msg.sender].slot3);\n        //delete players[myid];\n    }\n\n    // Get last player spin slot 1\n    function lastSpinSlot1() public view returns (uint) {\n        return spins[msg.sender].slot1;\n    }\n\n    // Get last player spin slot 2\n    function lastSpinSlot2() public view returns (uint) {\n        return spins[msg.sender].slot2;\n    }\n\n    // Get last player spin slot 3\n    function lastSpinSlot3() public view returns (uint) {\n        return spins[msg.sender].slot3;\n    }\n\n    // Get last player prize\n    function lastPrize() public view returns (uint) {\n        return prizes[msg.sender];\n    }\n\n    // Creates a list with the last 20 players for random number generation\n    function addPlayer(address _newAddress) internal {\n        randomPlayers[index] = _newAddress;\n        index++;\n        if (index >= randomPlayers.length) {\n            index = 0;\n        }\n    }\n\n    // Imprement the prize logic\n    function calculatePrize(address _player, uint _bet, uint _index) internal pure returns (uint) {\n        require(_player != address(0), \"Player address can not be zero\");\n        require(_index <= (maxPrize * 4), \"Error while trying to calculate prize\"); // The maximum index is maxPrize = maxIndex/4.\n\n       // prizes are returned in percentage, so 50 is 50% of the bet and 150 is 150% of the bet.\n       if (_index == 0) {\n         return 0;\n       }\n       // The index step is 25%, so bellow 4 player got less than bet.\n       return (_index.mul(_bet).div(4));\n    }\n\n    // Pay the prize to the player\n    function payPrize(address _player, uint _index) internal returns (uint) {\n\n        // Calculate the prize based on player bet\n        uint prize = calculatePrize(_player, bets[_player], _index);\n\n        // Send prize in tokens to the player\n        casinoToken.safeTransfer(_player, prize);\n\n        return prize;\n    }\n\n    // Check payline \n    function getPayTableResult(Slots _slots) internal pure returns (uint) {\n         // Sequence descending\n        if (isSequenceDown(_slots.slot1, _slots.slot2, _slots.slot3)) {\n            return 1; \n         // Sequence ascending\n        } else if (isSequenceUp(_slots.slot1, _slots.slot2, _slots.slot3)) {\n            return 3;\n         // Diagonal down-up \n        } else if (isDown(_slots.slot1, _slots.slot2) && isUp(_slots.slot3, _slots.slot2)) {\n            return 6;\n         // Diagonal up-down \n        } else if (isUp(_slots.slot1, _slots.slot2) && isDown(_slots.slot3, _slots.slot2)) {\n            return 8;\n        // Horizontal line \n       } else if (isInline(_slots.slot1, _slots.slot2) && isInline(_slots.slot3, _slots.slot2)) {\n            return 10;\n        } \n        return 0;\n    }\n\n    // Slot machine rules\n    function isInline(uint _slotA, uint _slotB) internal pure returns (bool) {\n        return (_slotA == _slotB);\n    }\n\n    function isUp(uint _slotA, uint _slotB) internal pure returns (bool) {\n        uint slotAup = _slotA;\n        if (slotAup == (symbols - 1)) {\n            slotAup = 0;\n        } else {\n             slotAup++;           \n        }\n        return (slotAup == _slotB);\n    }\n\n    function isDown(uint _slotA, uint _slotB) internal pure returns (bool) {\n        uint slotAdown = _slotA;\n        if (slotAdown == 0) {\n            slotAdown = (symbols - 1);\n        } else {\n            slotAdown--;\n        }\n\n        return (slotAdown == _slotB);\n    }\n\n    function isSequenceUp(uint _slotA, uint _slotB, uint _slotC) internal pure returns (bool) {\n        return (isUp(_slotA, _slotB) && isUp(_slotB, _slotC));\n    }\n\n    function isSequenceDown(uint _slotA, uint _slotB, uint _slotC) internal pure returns (bool) {\n        return (isDown(_slotA, _slotB) && isDown(_slotB, _slotC));\n    }    \n\n    // Get the symbol in each slot\n    function getSpinResult() internal view returns (Slots) {\n      // There are many diferent solution to implement a random number\n      // here we get the hash of concatenated bytes with current dificult, block time stamp, and the players address\n      uint256 randomNumber = uint256(keccak256(abi.encodePacked(block.difficulty, now, randomPlayers)));\n\n      uint slot1 = randomNumber % symbols;\n      uint slot1b = randomNumber / symbols;\n      uint slot2 = slot1b % symbols;\n      uint slot2b = slot1b / symbols;\n      uint slot3 = slot2b % symbols;\n\n      return Slots(slot1, slot2, slot3); \n    }\n    \n}\n",
  "sourcePath": "/Users/claudiotorres/TorresLabs/DEVELOPMENT/WORKINPROGRESS/Ethereum-Game-Development-Projects/Chapter-4/Truffle/SlotGame/contracts/SlotMachine.sol",
  "compiler": {
    "name": "solc",
    "version": "0.4.24+commit.e67f0147.Emscripten.clang"
  },
  "schemaVersion": "2.0.1",
  "updatedAt": "2018-12-10T16:45:09.093Z"
}